:020000041000EA
:1000000000B5324B212058609868022188439860DF
:10001000D860186158612E4B002199600221596106
:100020000121F02299502B49196001219960352056
:1000300000F044F80222904214D00621196600F024
:1000400034F8196E01211966002018661A6600F04E
:100050002CF8196E196E196E052000F02FF8012189
:100060000842F9D1002199601B49196000215960AB
:100070001A491B48016001219960EB211966A021F2
:10008000196600F012F800219960164914480160C1
:100090000121996001BC002800D000471248134993
:1000A000086003C880F30888084703B5996A0420EC
:1000B0000142FBD001200142F8D103BD02B5186610
:1000C0001866FFF7F2FF186E186E02BD00000240BE
:1000D000000000180000070000035F00212200005C
:1000E000F4000018222000A00001001008ED00E03C
:1000F00000000000000000000000000074B24E7A12
:1001000000200420F7010010CB010010CD010010E9
:10011000C9010010C9010010C9010010C901001077
:10012000C9010010C9010010C9010010CF01001061
:10013000C9010010C9010010D1010010D301001045
:10014000C1010010C1010010C1010010C101001067
:10015000C1010010C1010010C1010010C101001057
:10016000C1010010C1010010C1010010C101001047
:10017000C1010010C1010010C1010010C101001037
:10018000C1010010C1010010C1010010C101001027
:10019000C1010010C1010010C1010010C101001017
:1001A000C1010010C1010010C1010010C101001007
:1001B000C1010010C1010010C1010010C1010010F7
:1001C000EFF30580103800BE00BE00BE00BE00BECA
:1001D00000BE00BEF2EB8871A4350010C0350010DF
:1001E0003802001090A31AE71E481F49086006C88D
:1001F00081F3088810471D480068002801D019487D
:10020000F3E70DA40ECC002902D000F012F8F9E7B4
:100210001749184A002000E001C19142FCD116495B
:100220008847164988471649884700BEFDE701C937
:1002300001C29A42FBD37047C0350010C0000020B5
:10024000BC090020BC3E0010000004200000042077
:10025000BC3E00100010042000100420000000002C
:10026000704700000000000008ED00E0000000D032
:10027000BC0900205C120020CD1E0010B10200104D
:10028000C51E0010F8B5C046044B10B5002B03D0B6
:100290000349044800E000BF10BDC0460000000054
:1002A00018120020083400107047C0467047C0463E
:1002B00010B5A6B000230022012104A802F038FAEC
:1002C000002304AA01930093002101330BA802F03C
:1002D00041FA002114A801F0EDFF0022002302A939
:1002E0001A921B931C921D931E921F930A000C4B93
:1002F00014930C4B11CB11C202220BA801F0E6FFA4
:1003000014A802F0FDF8084C0BA80B9402F02CF88E
:1003100004A8049402F028F8002026B010BDC046BE
:100320004C350010083400106C350010D0231B062B
:100330001B68AC4A9900F0B5DE468B4651585A42CC
:1003400053412F2257464E4645465B4293439A46B9
:10035000A54BE0B59C4683B000260191E2440029FC
:1003600038D0A24B99465246F30808339B009D585B
:100370000123340098460836002D22D00F2120009A
:10038000294001342D09002919D04B465A469A5864
:100390000300C240203BDB171340424613420CD1FE
:1003A00007220F000240920097403A00C308904F86
:1003B0003C339B00DA51019B9847002D01D0B44299
:1003C000DCD3202ECFD103B0F0BCBB46B246A94649
:1003D000A046F0BD854E5F4600210F23B346CC08F2
:1003E00022005046083292001258002A00D1D0E074
:1003F000180010408046100913421AD05D46ED598E
:10040000A94620256D42AC468C446546ED17AC46A6
:100410004D46CD40A94665464E46354001263542FB
:1004200004D14646724D3C34A4006651002800D1E8
:10043000AFE01C000440A446140A03421AD0481C32
:1004400080465846C059464681464D460800F5400C
:100450001F38C01728400125284208D165462D01C4
:10046000AC46F0086646624D3C3080004651002C98
:1004700000D18EE0180020408446100B234211D09A
:100480008C1CA0465C46E4594646A1464D460C00ED
:10049000F5401E3CE4172C4001252C4200D182E09F
:1004A000002876D01C000440A446140C034210D04F
:1004B000C81C80465846C059464681464D460800ED
:1004C000F5401D38C01728400125284275D0002C62
:1004D0005FD0180020408046100D23420ED00C1D26
:1004E000A4466546414CE459EC40A1460C004D46FB
:1004F0001C3CE40F2C426AD000284AD01C00044067
:10050000A446140E034218D0481D8046454637487D
:10051000C059E840814608004D461B38C00F2842AC
:1005200009D165462D05AC4640466646C008304DAB
:100530003C3080004651002C2BD0180020408446CF
:10054000120F23422AD029488C1D8146C059E04011
:100550008046080045461A38C00F284206D1E008F8
:100560006446234D3C30240680004451002A10D0BC
:100570004846C059CC1DE0408446080065461938FD
:10058000C00F284205D1E0083C30194C120780000A
:1005900002510831202900D021E714E7002AF8D0C1
:1005A00012488146E4E765462D02AC46F4086646EB
:1005B0000F4D3C34A400665172E765462D03AC46EE
:1005C000F00866460A4D3C30800046517FE74546BC
:1005D0002D04A84664464646E408054D3C34A40074
:1005E000665189E7D01100203041014040120020BF
:1005F00000400140074B8000C3181B68C9009200EF
:100600000A435A400C231340034A94466044036053
:100610007047C04604C0014004D00140F8B54546CB
:100620009846D0231B06DE461C689B462B4B57463C
:100630009A46A3004E469946E0B5534616004A46F0
:100640009B5807000D00002B34D04346002B3FD0B1
:1006500053464A4641469950D0231B061C686342C4
:100660005C412F220720634293431D4A3840944641
:10067000FA081100800085403C311A486344890023
:1006800092000D509B18002E0ED0802292019446AD
:10069000634401210D201D6000F0AEF8F0BCBB46A4
:1006A000B246A946A046F8BDC022920194466344D2
:1006B0001D60F3E74346002BD1D0534641460D2041
:1006C00099500022084900F0D3F85B461C68C6E741
:1006D0000D20054900F0C6F9BAE7C046D011002048
:1006E00030410140004001402D0300100123D02281
:1006F0008340120693629361094A83009A18116835
:100700004022514080320A400649C0008C46634472
:100710001A60054B9C460523604443607047C04601
:1007200004C0014004D00140004001400FB400B5B6
:10073000084883B001F008FD049B002B07D005A9F1
:100740001800019101F08AFB034801F0FDFC012033
:1007500001F09CFB103400102034001070B5EFF352
:10076000108C72B60D4D2B68002BFCD0BFF35F8F41
:100770000724CB08C618C05C01230C40A3401C0012
:100780000440034207D118433070BFF35F8F2C60E1
:100790008CF3108870BD1000FFF7C8FF2C0100D04B
:1007A000044A1078431CDBB2172B00D910231370B6
:1007B0007047C046C80300200021044B044ABFF321
:1007C0005F8F02C39342FAD17047C046000100D048
:1007D000800100D0054B064A1360064A136053603F
:1007E0009360D36013615361936170478080808010
:1007F00000E400E004E400E01F2318401E3B8340B7
:10080000002905D0C021044A4900535013607047A5
:10081000802201498B50FAE700E100E070B50D003D
:10082000EFF3108672B60F4A1368002BFCD0BFF3AB
:100830005F8F0D4B10309B6884001B590B4A93420D
:1008400003D09D4201D001F073F8074B9B681D5106
:10085000BFF35F8FBFF35F8F0022024B1A6086F3F6
:10086000108870BD240100D000ED00E0C10100102F
:10087000F0B557464E46DE464546E0B585B0060023
:1008800000911700EFF3108B72B66A4A1368002BC1
:10089000FCD0BFF35F8F0025674B5D579A46002D54
:1008A00000DAA9E06B00654C01935B199B00984648
:1008B000A146C1444B4652469B7910361370604B9B
:1008C000B6009B6899590B1B2F2B33D95D4B99426E
:1008D00000D0ACE0019B42469C465B4B6544AD00BA
:1008E00063535A4B0232A218043B9B1A1B05584A09
:1008F0005B0D651913436B80564B0121AB80FF23C1
:10090000AB71009BEF71AB604B460B4319004C4B36
:100910009B689951BFF35F8FBFF35F8F0022454BF8
:100920001A608BF3108805B0F0BCBB46B246A946EE
:10093000A046F0BD01200A008243D3798C46BB4219
:1009400031D84546130044491B1B5B415943090DEF
:100950003D4B63533D4B02356519043B5B1B1B0547
:100960003B4D5B0D2B43AA464D466B800425AC46A0
:100970005546E044131F44441B1B1B055B0D1D43E0
:100980004B46997100999D8099604946DF71334BC0
:1009900001431360BBE75800C01880002018C179DC
:1009A000B9422FD902000623D356002BF3DA029363
:1009B0002B4B61460393131D9A4604235B429C46CE
:1009C000E14450464B461B1A1B055B0D9C46204BD1
:1009D000957198466346404603439380019B5A199C
:1009E0009200039BA418A380029B1C4AA371009B46
:1009F0002260E771A3608AE700F09AFF0025534662
:100A00005D574FE7908802934005131D9A460315E2
:100A100061469C464046D444634604302018181A68
:100A2000E0230005400D1B0218430390C5E700F0CA
:100A30007FFF4FE7240100D05A120020CC03002092
:100A400000ED00E0C101001000A1FFFFFC03002049
:100A500000E0FFFF01BDFFFFAAAA00000148804798
:100A600001BD0000F0B5DE4657464E464546E0B5AE
:100A70000C0083B0EFF3108872B6634A1368002B42
:100A8000FCD0BFF35F8F614B61499A68030010335C
:100A90009F00D55901938D4243D0A54254D05D4E5D
:100AA000AA1B2F2A3DD85C4B9B461B689946012305
:100AB0001A009C4682404B4613401F2299466346CB
:100AC000024093409A4680225B4650469850BFF3BE
:100AD0005F8FEFF305839B46002B37D0019B5B456F
:100AE00001D000F025FF01232A009A439068844238
:100AF00008D176E04B005B189B00F318986884429D
:100B000036D01A00062151560029F3DA844254D017
:100B10004B46002B27D0C02251463F4B52009950E4
:100B200019603A4B9B68DD51BFF35F8FBFF35F8F56
:100B30000022354B1A6088F3108803B0F0BCBB4626
:100B4000B246A946A046F0BD0D00EAE72A0063467A
:100B50009A4390688442D5D106201056130000288D
:100B60000ADA0D0031E0802351462B4AD150D8E7F4
:100B700006201856002821DB42001118890074183D
:100B80008B46A1689960E179D97106216156997106
:100B9000002924DBA488F11A640524155C44091992
:100BA00009051E4C490D2143998013181C4A9B00CE
:100BB0001178F31899711070AAE7130059460029AB
:100BC00014D1FF3191711749918015490A789A71B2
:100BD000154A9B1B5B415A43120D0A7098E7114955
:100BE000E2E70620105613000028C5DA0F4A104924
:100BF000D21A083A5002400D014399800D4952081B
:100C00000A43DA8084E7C046240100D000ED00E00A
:100C1000C1010010CC03002000E100E000E0FFFF74
:100C20005A12002001BDFFFFAAAA000006040020FE
:100C300000F0FFFF00F8FFFF70B501240443EFF35D
:100C40000581EFF3108C72B6214A1368002BFCD09B
:100C5000BFF35F8F1F4B05001F4AED1A6D416A43BA
:100C6000120D1E4D8900AE6852B27658A6421CD0B5
:100C70000621595691421CD012215956914222D038
:100C80001E215956914220D02A21595603249142BF
:100C900010D0134B19781A708171BFF35F8F002247
:100CA0000B4B1A608CF3108870BDAB680D4C5C5018
:100CB000EFE700246100091989005B18FF21997191
:100CC00009499980E5E70124F4E70224F2E7C046E8
:100CD000240100D0CC030020AAAA000000ED00E00F
:100CE0005A120020C101001001BDFFFF024B9C46BB
:100CF00061448900016070474000003470B5114CB8
:100D0000114DAC420FD2FF262368002B0CD0FFF709
:100D100047FD01002000FFF7E9FFA680BFF35F8FCA
:100D20000834AC42F0D370BDFFF73AFD010020005B
:100D3000FFF7DCFF2671BFF35F8F0834AC42E3D3CB
:100D4000F1E7C046AC090020BC0900200A4B196835
:100D5000EFF3108072B60A68002AFCD0BFF35F8FF1
:100D60001B68BFF35F8F00221A6080F3108840BFBA
:100D7000002000217047C04654120020F0B5DE4626
:100D800057464E464546E0B587B0EFF3058303224C
:100D900001251A40954091008846A946B34B03921D
:100DA0005C58B34B1D60B34B04934B46B24843634E
:100DB0000823E55E002D37DAA3881BB2002B00DB89
:100DC000ADE0A379002B00D0EEE00823E05E002820
:100DD00020DB430062691B18DB00D3189E68DD68C6
:100DE000731C00D111E1A44801004144826A0B69DF
:100DF000B71A9B1A9F4215D30123026A03988340B6
:100E00001A420FD09C4800F0A1FB8D4202DCCCD1ED
:100E10008642CAD940BF07B0F0BCBB46B246A9461D
:100E2000A046F0BD0E61EDE762696B0092465B196A
:100E3000DB009A4453469E68DF6800F087FB8F42D0
:100E4000BADC00D103E1002F00DAE8E05246534655
:100E500052691B699346049A934200D1D9E05246E5
:100E60000821605E5288000459461043984700905C
:100E700001910099019A0B001000134300D1CEE0BC
:100E800013000A00B61A9F41002806DB7A4800F0DA
:100E90005DFB009E019F36184F4153469E60DF6008
:100EA00000229A5E002A00DA86E7530099186069EA
:100EB000C900411802938B68C9689B46B94200DD9E
:100EC0007AE702D1B34200D976E708239C46A444CE
:100ED000059565462281A446029B2C0006E053003E
:100EE0009918C90041188D68C968AB469B18DB008A
:100EF000C318B94206DC00D1B3E01C000023E25E57
:100F0000002AECDA230064469C4653461A80634666
:100F1000059D1D80A3881BB2002B00DA51E72269D2
:100F2000EFF3108172B61368002BFCD0BFF35F8F14
:100F30000123A7885B42A3803FB22369BFF35F8F81
:100F400000221A6081F31088002F00DA39E72300AD
:100F5000083322009A4666697B00DB19DB00F31830
:100F6000996850468C460824115FDD68002910DB23
:100F7000029306E0AB4244D00023E15E200000294A
:100F800006DB4C006418E4003419E368AB42F1DD81
:100F9000029B078000201F5E1980002FDCDA1400FE
:100FA000A379002B00D110E70023A37126000823AA
:100FB000E15E08364B1C00D12CE70800A2466569AB
:100FC00002E03E004B1C1AD04B005B18DB00EF1810
:100FD0000A008C46E95E7B881BB2002BF1DA012304
:100FE0005B42DC17BB60FC60824205D05346318017
:100FF0001B893B8053461A8160464B1CE4D1544602
:10100000E5E6A3686345B7D9C2E76B1C00D0EAE602
:10101000F8E65B4658461B69984700281BD15346A3
:101020001B8822692381EFF3108372B611680029AF
:10103000FCD0BFF35F8F514662880A8022696580C9
:10104000BFF35F8F0021116083F31088B4E68642FE
:1010500000D8F8E6B0E65B461A685B680092019338
:1010600007E7B34500D848E74CE7C04630120020F8
:101070003C7005407D0D00100040054070B52E4CC1
:101080002569002D04D00A212C48FFF72FFE70BDE2
:101090002B4E0321300000F04FFAE660FFF780FB93
:1010A000284B03229C46D02322701B061B6801217B
:1010B0006370254B6044A3600F23800020610220F1
:1010C000638063694942A1801980023119864731E2
:1010D0001D83585218315A5275325C399952183260
:1010E0000131995218320131995218320131995215
:1010F000083518329D520231183299521832013196
:1011000099521832013199521832013199521832DC
:10111000013199521832013199520C4B0C49DC6063
:1011200001303562FFF77AFB01210320FFF764FBF2
:10113000084B1D60A7E7C04614040020541200208D
:101140000040054040000034FFFF10003012002036
:101150007D0D0010386005400048704714040020E1
:1011600070B501000469EFF3108C72B62068002896
:10117000FCD0BFF35F8F02200D5E4C696800401900
:10118000C00024180869002D36DB26884E80BFF386
:101190005F8F002606608CF31088E36063880498F4
:1011A000013320615B0405985B0CA26060611A1C2E
:1011B000002B1FD093B22804628018430A69EFF312
:1011C000108C72B61368002BFCD0BFF35F8F8B8836
:1011D00023808D800B69BFF35F8F00221A608CF330
:1011E00010880B7801329A40CB6808498C466344DA
:1011F0001A6070BD0122DDE7BFF35F8F002303603B
:101200008CF3108801204042F3E7C0463C200000E8
:1012100010B543890A1493421ADD53009B184269A2
:10122000DB00D3180469EFF3108C72B62268002A31
:10123000FCD0BFF35F8F5A88090494B2090C8A422C
:1012400008D00369BFF35F8F00221A608CF3108807
:10125000002010BD8022120214435C800123026929
:101260008371BFF35F8F002111608CF310880449F4
:1012700002788C469340C268012062441360E8E71C
:101280003C200000F0B557464E46DE464546E0B5E8
:1012900006000F0085B0EFF3058399468B46002BBF
:1012A00012D0384900204B6ABB4206D38A6ADB1B46
:1012B000591E8B41B2424041184305B0F0BCBB46B9
:1012C000B246A946A046F0BD2F4B9A46DB68984629
:1012D00053461B784046039300F038F94246039B7F
:1012E000040004339B009B580D001B1A390030008A
:1012F000001BA941894510DC0DD020BF214A0020E8
:10130000536A5B45D9D3926ADB1B591E8B41B242AB
:1013100040411843D1E78342EFD900F01FF9320072
:101320003B00121A8B41002B1ADB00230193174B51
:101330003200009350463B00FFF712FF011E0FDD05
:10134000104B5A6A5A451BD39B6AB34216D3504678
:10135000FFF75EFF0B4A0020536A5B45ADD3D2E72F
:10136000084A0020536A5B45A7D30020926ADB1B22
:10137000B24240415A1E934118439EE75A45E6D176
:1013800020BFE4E700400540140400204D0D00108C
:10139000F0B5CE464746110080B583B004009C46A8
:1013A0000C9D194300D16CE06146DB17019300935B
:1013B00053401E00019B4B401F0000980199361AB4
:1013C0008F4163460A996B600B9BAC6029612A6070
:1013D0006B6100F0C3F880197941002902DA01201D
:1013E000314940422269EFF3108972B61368002B2D
:1013F000FCD0BFF35F8F0223E65E6369720092192F
:10140000D2009B1822699046002E42DB1A88628027
:10141000BFF35F8F002247463A6089F31088234A62
:101420009860D9601A615A885D6101325204520C89
:10143000111C002A2BD088B2320402435980206943
:10144000EFF3108772B601680029FCD0BFF35F8FFD
:10145000A1881980A6802369BFF35F8F00211960DE
:1014600087F310881248237884460131994001207F
:10147000E36863441960EA6003B0C0BCB946B04693
:10148000F0BD00230126002701229C4699E7012197
:10149000D1E7BFF35F8F0023136089F31088012227
:1014A00000205242E7E7C046FFFFFF7F7D0D00109E
:1014B0003C200000C268030030B50020002A00D1A3
:1014C00030BD996814144889844219DA6000001903
:1014D0004C69C00020180D69EFF3108C72B62C68AF
:1014E000002CFCD0BFF35F8F44881204120CA24280
:1014F0000AD00A69BFF35F8F002111608CF3108856
:1015000000200022DA60DBE78024240222434280AC
:10151000012208698A71BFF35F8F002404608CF395
:1015200010880878C96882400248844661440120D6
:101530000A60E6E73C20000010B5024A0248FFF7C7
:101540000DF910BD24340010D81100200300416AA9
:101550000A00986A596A8A42FAD17047034B596A5D
:101560000A00986A596A9142FAD1704700400540D2
:1015700070B516000D0019000400FFF7B7FB290035
:10158000701C00F00DFC0023E681A5816060A36063
:1015900070BDC04670B502680400EFF3108572B6E6
:1015A0001368002BFCD0BFF35F8F20896389E28929
:1015B000C31A01D5561C9B199A4208D12368BFF360
:1015C0005F8F00221A6085F31088002070BDA28909
:1015D00063685043181800F023FC00221000238990
:1015E000E18901339BB29942504141420B40238132
:1015F0002368BFF35F8F1A6085F3108840BF012016
:10160000E4E7C046F8B5DE464E4657464546E0B5E7
:101610008B4605000A991800160000F0B3FA0A9BE1
:101620006C001F02324B64199C46A400644463683A
:1016300081469F4200D967602B1FDBB29846012B81
:1016400030D9C02380229B01E31812011A60294B74
:10165000AD0059599A4600291BD17301E026226832
:1016600053401E40802342465B01E3181E60012A5E
:1016700030D9802380229B01E31812011A6053465F
:101680004A4667605A51F0BCBB46B246A946A046DE
:10169000F8BD586900F076FA013043001B18033B8F
:1016A000FDD2DAE75B46012BCBD1C02303229B019D
:1016B000E3181A60023AA3681A42FCD07301E026CC
:1016C0002268AD0053401E4080230A4A5B019246C7
:1016D000E3181E605A462168514003220A401A60EE
:1016E00001225B469A40A3681A42FCD0C1E7C0467B
:1016F00000800040DC110020F0B546464F46D6463B
:10170000C0B51F00344B44009C462418A400644418
:10171000636888461600FF2B02D880235B00636055
:10172000031FDBB29A46012B30D9C02380229B01D4
:10173000E31812011A60294B85005959994600296E
:101740001BD17301E026226853401E40802352467D
:101750005B01E3181E60012A30D9802380229B019F
:10176000E31812011A6080235B0063604B465F51EF
:10177000E0BCBA46B146A846F0BD586900F002FA8E
:10178000013043001B18033BFDD2DAE74346012B2F
:10179000CBD1C02303229B01E3181A60023AA3684D
:1017A0001A42FCD07301E0262268850053401E4097
:1017B00080230A4A5B019146E3181E604246216875
:1017C000514003220A401A60012342469340A26816
:1017D0001342FCD0C1E7C04600800040DC1100206D
:1017E000014B8000C0587047DC110020F8B50400A0
:1017F00021481E0017000D0000F0C4F90100380058
:1018000000F0C0F9069B36041B031E432368002B1F
:1018100020DB1A4B1A49E3185A1E93418022920189
:1018200094465B421B0B174A1B0363441360164A22
:1018300013601F000A689743FBD1144B2560E21820
:101840002123A06013602368002BFCDA0823E660E4
:101850001360F8BD3F2322681340AB42D9D1A3687F
:101860001B051B0D8342D4D1EE22E368D202134044
:10187000B342CED1EDE7C046001BB7000040FDBF2C
:1018800008C0004000E0004000F0004004300000CC
:101890008023024A9B000B43D362704700800540BF
:1018A000002310B50100988A1B8B984710BDC046D5
:1018B000162310B50100188802331B88984710BD05
:1018C000F8B54746CE4680B50F1E18D0142399466A
:1018D000043304000025012698464B4618884346E9
:1018E00021681B88984701C4431E98410135064072
:1018F000AF42F2D13000C0BCB946B046F8BD0126B7
:10190000F8E7C046AA23064A1B0113608D235B003B
:10191000D3600449044B19605368002BFCDA70470C
:101920000040024000B0FA00006002407047C0462C
:1019300010B50148FEF7FAFE4834001070B5074DA7
:10194000074EB54209D20024013E761BB60808CDE9
:10195000984723000134B342F9D170BDC033001061
:10196000FC330010054B064A06491A60064A074B2D
:101970001A6010000B689843FBD1704700E00040EC
:10198000BFCDFBFE08C00040FE7F3C0000F00040E1
:10199000044BDB6C002B03D18022034BD2021A6074
:1019A0007047C046000011504C201150044A054BAE
:1019B0001A60054A1368DB018033FBD17047C046CB
:1019C000FFFFFF0100F0004008C000404022034B31
:1019D0009A675A671A67DA667047C04600F0014096
:1019E00010B5FEF7E9FE10BDF8B52749274C284D84
:1019F000641AA6103200302E00D93022280092003E
:101A000000F00EFABC2C3BD830202F232C19640791
:101A1000204A801BE40F9B1B052B16D93700002C96
:101A200002D0B300771CEA50001B33199B00410819
:101A3000EB18C900C9181A605A6008339942FAD1E4
:101A4000012303421CD09843C619B300EA50731C0B
:101A50002F2E15D09B00EA50B31C2E2E10D09B00C9
:101A6000EA50F31C2D2E0BD09B00EA50331D2C2E78
:101A700006D09B00EA50731D2B2E01D09B00EA502C
:101A8000054B9D60F8BDC04600010010C00100106C
:101A900000000020C101001000ED00E0002310B59F
:101AA000294C82B0A367FFF72DFF0122274B1A6054
:101AB000636C012BFCD10322254B1A60224A936BE5
:101AC000012BFCD1013300930121224A2248043327
:101AD000FFF78CFE052301210093204A2048FFF7E1
:101AE00085FE0022022104201E4BFFF705FE002286
:101AF000012105201C4BFFF7FFFD002200210720DC
:101B00001A4BFFF7F9FD002200210820174BFFF7C1
:101B1000F3FD8023DB000093002200210920134BFA
:101B2000FFF770FD0022104B00210620FFF7E4FDB7
:101B30000420FFF755FE0E4900F024F801000020B4
:101B4000FFF7A6FE02B010BD008000403CB0004090
:101B500030B00040002F685900800240008C86475A
:101B600000C00240001BB70040597307006CDC0244
:101B700040420F0001480421014B18473004002067
:101B8000C1180010114A936F9B0813D2106651665A
:101B9000002905D0FFE7FFE7FFE7516F106F70479F
:101BA00004B5002801D00020C04301F0F1FB002162
:101BB00004BDC046F0B5146E556E576F166FFFF733
:101BC000E5FF1466556657671667F0BD000000D044
:101BD000132370B51D78012D19D014DD1F48FFF7B0
:101BE00067FE06001E48FFF763FE1E4C8022310090
:101BF000200000F015F9022D2DD01B48FFF750FEF4
:101C00001A4B186070BD1A4B164CA364F5E7184BBD
:101C1000144C23606360A360E36023616361A3618C
:101C2000E36123626362A362E36223636363A3638A
:101C3000E36323646364A364E36423656365A3656A
:101C4000E36523666366A366E36623676367A3674A
:101C5000E367A364D1E7064BA364CEE753440000D7
:101C600053460000400B00204C330000501200206F
:101C7000751C001007B5604601880A0A0230DF2A89
:101C8000FAD1C9B2820804D3028840880004104304
:101C900000E00068014A5050039007BD400B00204F
:101CA00051434343C9188C46110C83B24B4310B4C3
:101CB000040C614392B280B2504362431C041B0C7B
:101CC000001910BC59411304120CC0185141614451
:101CD00070470000132310B512481C78FFF7E8FD89
:101CE0000100012C0AD003DD80220F4800F098F893
:101CF0000E48FFF7D5FD0E4B186010BD0A4C54225C
:101D0000200000F08DF80B4B6365A365E365236647
:101D10006366A366E36623676367A367E36723627B
:101D2000E361E5E753460000400C00204C3300001F
:101D300050120020391D001007B5604601880A0ABC
:101D40000230DF2AFAD1C9B2820804D3028840885F
:101D50000004104300E00068014A5050039007BDA2
:101D6000400C002070B504000A4E300001F020FB4A
:101D7000200000F06FFD0500300001F001FB002D98
:101D800005D0054B2C199C4201D8280070BD034892
:101D9000FEF7CCFCAC0900200000042054340010F5
:101DA000F8B506000C000C4F380001F001FB2100D3
:101DB000300000F0EFFC0500380001F0E1FA744358
:101DC000002D05D0054B2C199C4201D82800F8BDE8
:101DD0000348FEF7ABFCC046AC090020000004201D
:101DE0005434001070B50400054D280001F0E0FAED
:101DF000200000F039FD280001F0C2FA70BDC04695
:101E0000AC09002001480421014B18474004002080
:101E1000C1180010014B1B68184700004004002047
:101E2000014B5B68184700004004002010B5FFF725
:101E300099FF10BD10B5FFF795FF10BD10B5FFF766
:101E4000D1FF10BD10B5FFF7CDFF10BD10B50028B4
:101E500000D110BD00F02EF9FBE7C04610B5094ACD
:101E60000300146884B0002C08D0012200910648B9
:101E7000524203A9A047012004B010BD00F064F94C
:101E80000020F9E7141200204D1E001000BEFDE7EF
:101E9000094A03001068002805D00849C3188B427E
:101EA00007D81360704706480449C31810608B4276
:101EB000F7D901204042F5E710120020000004206D
:101EC0005C12002010B5FFF7E1FFC04670B5FFF7C8
:101ED00035FD074D074EB54209D20024013E761B61
:101EE000B60808CD984723000134B342F9D170BD3C
:101EF000FC33001008340010030010B50800110076
:101F00001B68984710BDC046F0B5C64600B5437D76
:101F100007000C001600002B46D0002A17DD0B78B6
:101F20000A2B24D000239846012E13D00125290026
:101F3000635C01350A2B26D0B542F8D1464509DC51
:101F4000A419013C23780D3B5A4253413B7580BC98
:101F5000B846F0BD4346E018A419F11A013C3B68AD
:101F6000984723780D3B5A4253413B75EFE7037D79
:101F7000002BD7D102210F483B689847012EDFD0B4
:101F800001239846D2E7631E5B5C0D2BD4D08845B5
:101F900004DA4346C91AE0183B689847022105480D
:101FA0003B68A8469847C7E7036811002000984798
:101FB000CDE7C04608350010F0B54546DE464E4632
:101FC0005746E0B583B091461C0080460D00FFF7F0
:101FD000C5FA0023304A12184B41002B02DA0122C5
:101FE0002E4B52422E4908008A4601F0D9F90700CB
:101FF0006B1C03D1404600F0D7FF0500002C27D012
:10200000284E294B1C68002C18D04B46002B21D1A0
:10201000264B994602E02469002C0FD02368002B40
:10202000F9D04B461B68002B01D09C42F3D1200015
:102030002A004146B0472469002CEFD1002F26D159
:10204000280003B0F0BCBB46B246A946A046F0BD8E
:10205000174ED6E7154B99460A239B4602E02469A2
:10206000002CEBD02368002BF9D04B461B68002BCB
:1020700001D0A342F3D12A0041462000B0476B466D
:102080005A462000DA71D91D0122B047E7E75046D1
:1020900001F076F9D4E7C04640420F00FFFFFF7F12
:1020A000B4090020091F0010041200200C120020A7
:1020B000F91E0010F0B5CE46474680B583B06B469A
:1020C0000600DD1D2870FFF749FA0023194A12188F
:1020D0004B41002B02DA0122174B524217490800EC
:1020E000884601F05DF9164B81461C68002C14D01F
:1020F000144F02E02469002C0FD02368002BF9D084
:102100003B68002B01D09C42F4D120000122290021
:10211000FFF7FAFE2469002CEFD14B46002B05D1C6
:10212000300003B0C0BCB946B046F0BD404601F037
:1021300027F9F5E740420F00FFFFFF7FB4090020B9
:10214000041200200C12002070B5040000F02CFFD7
:1021500001230100050001222000FFF72DFF084B9D
:102160001C68002C06D06368002B05D098472469B2
:10217000002CF8D1280070BD2469002CF3D1F9E7B8
:102180000412002010B5024800F004F810BDC0464B
:102190004812002010B588B004000D2200216846C6
:1021A000FFF738FE0D22002104A8FFF733FE4B2372
:1021B0006A466846137004A90D2201F0D9F815216A
:1021C000082220006944FFF72BFE08B010BDC0466E
:1021D0007047C0467047C046054B10B50400036009
:1021E0004068002801D0FFF729FE200010BDC0463E
:1021F00014350010074B10B5040003604068002838
:1022000001D0FFF71BFE20001421FFF71BFE20006A
:1022100010BDC046143500100A4B70B51B78040081
:1022200015000160002B02D02000656070BDFEF734
:10223000B7FA054E0300202204213000FFF798F979
:10224000F2E7C04658120020B80D0020094B70B5C7
:102250001B7804000160002B01D0200070BDFEF748
:102260009FFA054D0300202204212800FFF780F982
:10227000F3E7C04658120020B80D0020F8B51D0045
:102280000A4B04001B7816000160002B03D02000CD
:102290006660A560F8BDFEF783FA054F03002022B3
:1022A00004213800FFF764F9F1E7C0465812002016
:1022B000B80D0020044BC1600360002343608360BD
:1022C000013303747047C04614350010F0B5C6469C
:1022D000154B9700050088461400380000B59A4257
:1022E00001D901204042FFF7A5FD0600012C03D4CF
:1022F0003A000021FFF78EFD68686E60002802D06A
:10230000FFF79CFD6E68042F08DD3A00414630005F
:1023100000F0AAFDAC6080BCB846F0BD042FF9D136
:1023200043461B683360F5E7FEFFFF1F0122D02301
:10233000417C1B068A405B6813405A1E9341D8B209
:102340007047C04610B541690122024B407CFEF740
:1023500065F910BDF523001010B541690023002276
:10236000407CFEF75BF910BD002110B5427C064BA6
:102370009200D150054B040003604068002801D052
:10238000FFF75CFD200010BD400D0020143500104B
:10239000002110B5427C084B9200D150074B04003D
:1023A00003604068002801D0FFF748FD2000182195
:1023B000FFF748FD200010BD400D0020143500102F
:1023C00070B5436904000D0082B00B4201D102B028
:1023D00070BD0820FFF72AFD060021002A00FFF744
:1023E0001BFF01A902480196FFF7D4F8EFE7C046AA
:1023F000B80D002070B5114B8000C4580D0082B09C
:10240000002C07D023680E4A1B69934212D16369DE
:102410000B4201D102B070BD0820FFF707FD060096
:1024200021002A00FFF7F8FE01A906480196FFF7F0
:10243000B1F8EFE720009847ECE7C046400D0020D8
:10244000C1230010B80D0020F0B5C64604000E00F0
:102450001F0000B506999046FFF72CFF194B6674D4
:1024600023606761351C1E2E00D91E25164BEDB268
:10247000AA002800D450FEF739F90123D022AB403E
:10248000120693624346012B16D0022B0ED1012275
:1024900000212800FEF7AEF82800390001220B4B7E
:1024A000FEF7BCF8200080BCB846F0BD0022002139
:1024B0002800FEF79FF8EFE7002201212800FEF731
:1024C00099F8E9E72C350010400D0020F5230010A5
:1024D00030B5456983B00420FFF7A8FC040029004B
:1024E000FFF7B4FE01A905480194FFF753F8FFF781
:1024F00035F828626962012003B030BDB80D0020B4
:1025000010B50A4B04000360437C002B08D1084B34
:1025100060682360002801D0FFF790FC200010BD08
:102520003030FEF7C7FF00236374F0E74C3500102E
:102530001435001010B5437C0400002B00D110BDF1
:102540003030FEF7B7FF00236374F8E7F0B5037C83
:1025500004000D0085B0002B34D00700437C3037D9
:10256000002B0ED00368194A5B6993422CD13800C6
:10257000FEF7A0FF002363742368290020001B6975
:102580009847FA220023920028000021FFF788FBD9
:10259000A062E162FEF7E2FF20626162FEF7DCFD0D
:1025A000FA220600002392002800E917FFF778FBC3
:1025B0000B00074902000297300001940091FEF7DA
:1025C000E7FE607405B0F0BD9847D5E735250010EB
:1025D000D124001010B50C4B04000360437C002B89
:1025E0000CD10A4B60682360002801D0FFF726FC5D
:1025F00020004821FFF726FC200010BD3030FEF7F8
:1026000059FF00236374ECE74C35001014350010BB
:1026100010B50400024B0360FFF7A6FE200010BDBA
:102620006C35001010B50400044B0360FFF79CFEEE
:1026300020001C21FFF706FC200010BD6C350010A7
:1026400010B50400024B0360FFF78EFE200010BDA2
:102650006C35001010B50400044B0360FFF784FED6
:1026600020002421FFF7EEFB200010BD6C35001088
:1026700070B5436904000D0082B00B4201D102B075
:1026800070BD0C20FFF7D2FB0600210001232A00B9
:10269000FFF7F4FD01A902480196FEF77BFFEEE784
:1026A000B80D0020F0B5436904000F0083B00B4261
:1026B00011D0036A002B10D00025002604E0236A05
:1026C00001361835B34208D9E069401903685B69DF
:1026D00098470028F3D103B0F0BD0C20FFF7A6FB0C
:1026E0000500210001233A00FFF7C8FD01A90248B7
:1026F0000195FEF74FFFEEE7B80D0020027E0300C4
:10270000002A0AD0D022120650685A7C0123934036
:10271000184043425841C0B27047D0221206506858
:102720005A7C012393401840431E9841C0B2F3E7FE
:1027300030B515000222040083B00093521B0C2315
:10274000FFF782FE2000024B2576236003B030BDE8
:102750006C350010F0B516000222040083B01D0095
:1027600008AB1F78099BD21B00930C23FFF76CFE6C
:102770002000034B27762360E661256203B0F0BD9D
:102780008C35001010B5010000230022002000F05D
:1027900039FC10BD030010B50A0003490868190090
:1027A00000F004F810BDC0466008002070B50B0CA6
:1027B0000024150C002B28D1002D3CD18BB291B2F6
:1027C000594300F05BF8051E33D00300083B5A68FC
:1027D00003239A43043A242A12D80300132A0AD95D
:1027E0000460446008331B2A05D98460C460242A2D
:1027F0002AD00300103300221A605A609A6002E067
:102800000021FFF707FB280070BD002D16D1151C15
:1028100089B292B24A43ADB29BB26B43110C5B18C2
:10282000190C0BD1190492B2114300F027F8051EC0
:10283000CBD10025E7E72B1C0D1CE9E700F088FB56
:102840000C2300250360DEE70300046118334461B4
:10285000D1E7C04610B5034B0100186800F00EF830
:1028600010BDC0466008002010B5034B0100186879
:1028700000F082FC10BDC04660080020F0B54E4656
:102880004546DE465746E0B50D000B35060085B0DF
:10289000162D21D8102900D9D4E000F0D5FA102542
:1028A00018230221CA4FFB181A005C68083A9442A8
:1028B00000D186E103226368A1689343E268CA609D
:1028C00091600121E3185A6830000A435A6000F011
:1028D000C3FA20000830B8E007239D4300D5B1E0DB
:1028E000A94200D9AEE000F0AFFAFC235B009D42A4
:1028F00000D2E0E1690A00D1AEE0042900D9A1E1EB
:1029000038239846A90988443931CB00082252421D
:102910009446AF4FFB189C446346DC68A44514D032
:10292000032399460B0061469C4607E0E068002AB5
:1029300000DB40E1814200D141E104004A46636886
:1029400093435A1B0F2AF1DD41463A003C69083295
:10295000944200D11EE1032063688343581B0F2873
:1029600000DDACE13A617A610028AADA7A68904623
:1029700080229200934200D336E1DA0858090123FD
:102980008340404618438046D300DB199A6878603C
:10299000E360A2609C60D46001208B1098404045A9
:1029A00062D8434603420AD1032399434346400079
:1029B0000431034203D1400004310342FBD003231E
:1029C000B3469C460E00B8460190F000404401001A
:1029D000B246CB680BE064465A681F00A243DB682E
:1029E000541B0F2C00DD39E1002C00DB53E1994230
:1029F000F1D101239946CA44534608319B07E8D1D7
:102A0000032205E003680838013E834200D013E248
:102A10003242F7D14346019A5B6893434246536082
:102A2000019A520001929A421CD8002A06D119E05C
:102A300004229146019ACA44520001921342F7D0EF
:102A40005646C2E70C233360002005B0F0BCBB46FD
:102A5000B246A946A046F0BD80233F2240219046C1
:102A60009B0053E75E4647460322BC686368934376
:102A70009846AB4203D35B1B0F2B00DD8DE0230098
:102A800043440293534B08201B6810335B19019396
:102A900000F07CFA504903900B688A46013306D057
:102AA0008446019B4242013B634413400193300042
:102AB000019900F03BFA03008146013300D11CE18B
:102AC000029B834200D916E1444B02989B461A6848
:102AD000019B59469C4662440A6003990139484566
:102AE00000D157E153461B68013300D15EE14B46EC
:102AF00002981B1A9B185A46136007234A464846F9
:102B00001A400292184200D115E10398013384461D
:102B10009B1A019A99444A44019263440A409B1AC1
:102B2000194030008A4600F001FA431C00D158E1F8
:102B30004B46C01A0300534401935B461A680120B8
:102B400052441A604B464946BB60019B03434B60AD
:102B5000BC4213D043460F2B00D82BE107210C3B7E
:102B60008B4361680140052019436160E1184860AA
:102B700088600F2B00D93FE14B465B681849086815
:102B8000904200D20A6017490868904200D20A6059
:102B90004C46B4E07B689846FEE6012229001343C8
:102BA0001143651961603000BD606B6000F054F93D
:102BB0002000083049E7A268D060826081E6614663
:102BC000C3E6DC680231A34200D1BEE672E6C0462D
:102BD00058040020940F002050040020640F0020AF
:102BE0008C0F0020900F00205A0A042A7CD9142A46
:102BF00000D9B0E010005B3082465C32D200082081
:102C000040428446BA189444624692680B3081462A
:102C1000944500D186E00800A2466146844602E061
:102C20009268914204D04C465068A0439842F7D82D
:102C3000D368614654469C466346A260E3609C604C
:102C4000D460A9E6142967D9542900D98CE06E23F1
:102C50009846290B88446F31CB0057E6BA460120CD
:102C600051468446491905435046456085684746A4
:102C70006046EB605E469D60534639617961204352
:102C800008374860CF6030008F609C5000F0E4F857
:102C900050460830D9E6BA4601205E465244516893
:102CA00001435160BA683000D3609A6000F0D4F8F4
:102CB00038000830C9E62B00E9080833F2E561194D
:102CC000884601218C460D43414665603961796132
:102CD000CA608A60624602434A60E050300000F0F9
:102CE000BBF820000830B0E69A09100039323830BD
:102CF0008246D20083E7BC4241D0BC6863680322AD
:102D000093431A005B1BAA4202D30F2B00DD44E75A
:102D1000300000F0A1F897E65B23984688445C31C8
:102D2000CB00F3E5534698100123834040461843F7
:102D30008046786080E7019B039A4B440B40D31A8E
:102D4000194030008A4600F0F1F8431C00D0EFE64D
:102D500000239A46F1E6542A2ED81A0B10006F323F
:102D60006E308246D2004AE7AA235B0099422ED8F1
:102D7000DD3B9846E90B88447831CB00C6E5304B03
:102D80009B461A68019B9C465B4662441A60039B03
:102D9000591EA7E64846084200D0A3E6B968434456
:102DA000894601210B4349464B60E7E653464A46B4
:102DB0001A60A2E64860ABE7AA204000824226D80B
:102DC000DA0B1000783277308246D20017E71D4BBD
:102DD000994226D87C239846A90C88447D31CB00A3
:102DE00094E5019A029B94464A46083B63449B1A29
:102DF000019300239A46A0E621003000083100F03C
:102E0000BBF95B461A68BB6899465B68B6E60D4835
:102E100082420CD89A0C10007D327C308246D2005F
:102E2000EDE6FE237E227F2190469B006EE5FE228A
:102E30007E2092008246E2E643465B68F0E5C046AB
:102E4000640F00205405000010B5024800F09AF805
:102E500010BDC046600F002010B5024800F094F885
:102E600010BDC046600F0020F0B5CE46474680B585
:102E700088420DD98B1898420AD2531E002A03D0DB
:102E8000CA5CC254013BFBD2C0BCB946B046F0BDDF
:102E90000F2A0BD80500561E002AF5D00023CC5C63
:102EA0001A00EC5401339642F9D1EDE703000B43CD
:102EB00088469B0734D110261700B1460C0003004A
:102EC000103F3F093F01C519A94426681E60666886
:102ED0005E60A6689E60E6681034DE601E001033F7
:102EE000AE42F2D1CF1939000F230C2610318C4697
:102EF0001340164217D04446043B9B089B00FF1822
:102F00001437061B0C688D1904312C60B942F9D1B5
:102F10006146043359184B441D0003231A40BAE795
:102F20000500561EBAE74D461A00B4E7002370B5F7
:102F3000064C050008002360FEF7AAFF431C00D0E2
:102F400070BD2368002BFBD02B60F9E7081200202E
:102F5000014B18687047C0466008002070B5074CE8
:102F6000074D641BA41005D0013CA300EB58984703
:102F7000002CF9D100F0F8F970BDC04608340010FB
:102F8000083400107047C0467047C046802310B513
:102F90005B01082801D1180010BDFFF7D9FF1623E7
:102FA0000360173BF7E7C04610B583070AD003005C
:102FB000032102E001330B4205D01A78002AF9D12F
:102FC000181A10BD030019680C4A0D4C8A188A4360
:102FD00022420FD15968094A04338A188A4322428F
:102FE00008D15968054A04338A188A432242F1D02D
:102FF00000E001331A78002AFBD1E1E7FFFEFEFE74
:1030000080808080F0B5D6464F4646469846244B91
:10301000C0B5060018689A460F009146FFF7B2FF48
:10302000204B1D68002D32D053466C6818681F2C49
:1030300030DC002E0CD1631C0234A4006B6067519D
:10304000FFF7A2FF0020E0BCBA46B146A846F0BD9B
:1030500049468822A300EB189950C42149008C46A8
:10306000AC446146873AA2400968914611436246E2
:1030700011608421424649005A50022EDBD12900BA
:103080004A468D31FF310B6813430B60D3E7064D81
:103090001D60C9E7FFF778FF01204042D3E7C04633
:1030A000A8090020C80D0020CC0D0020034B10B54E
:1030B000002B02D00248FFF765FB10BD00000000A6
:1030C0005D2F0010F0B5C646060000B508200D00C3
:1030D000FFF75CFF04003000FFF7B6FE234B210032
:1030E00098469B685F6803239F4338001138401B54
:1030F0000019FEF747FD451E6543AC4208DC002180
:103100003000FFF713FF43469B68DB19984206D057
:103110003000FFF7A1FE002080BCB846F0BD3000B3
:103120006942FFF703FF01300ED0012243467F1BA7
:103130009B6817430E4A5F60136830005B1B136087
:10314000FFF78AFE0120E7E700213000FFF7EEFEDF
:1031500043469A68831A0F2BDADD064C044924682B
:10316000001B086001210B435360D1E75804002085
:10317000640F002050040020F0B5D6464F46464666
:1031800005000C00C0B5002948D0FFF75DFE210006
:10319000012708394B6803209C46BB43CE18726850
:1031A00082436046384080466A4891468468B4420B
:1031B00000D17CE07260B41864683C40A24644468A
:1031C000002C30D10C68A446091B8C686344A446CB
:1031D0000824A0468044C4455CD0CC68A046644620
:1031E0004246E26094605246002A1FD01F434F605F
:1031F000336080229200934230D2DA085C090123C6
:10320000A340446823434360D3001B189A68CB60F3
:103210008A609960D1602800FFF71EFEE0BCBA46C4
:10322000B146A846F0BD5246002A0FD101224B44B8
:10323000CF18BC46B468484F1A43BC425BD0F6680E
:10324000E660B4604A6062461360D2E762463A4381
:103250004A608022336092009342CED35C0A042CF1
:103260003FD89C09260039343836E4000419226816
:10327000083C0327944203D14EE09268944203D065
:103280005068B8439842F8D8D468CC608A60A1608E
:10329000D160C0E75246002A35D14B441A00B068CD
:1032A000F3681743C36098604F608A50B3E74B449C
:1032B0001A004346002B06D10B68C91A8C68D21835
:1032C000CB68E3609C60012313434B60234B816018
:1032D0001B6893429FD8224B28001968FFF7F2FE23
:1032E00099E7142C13D9542C1DD81C0B26006F34CD
:1032F0006E36E400BAE7E160A1604A606246CC60E5
:103300008C60136087E71F434F60336083E72600BC
:103310005C345B36E400A9E70123B610B34046688D
:1033200033434360B1E7AA225200944205D8DC0B34
:10333000260078347736E40098E70A4A944205D8A4
:103340009C0C26007D347C36E4008FE7FE247E262C
:10335000A4008BE7580400206004002054040020DF
:10336000940F002054050000F8B5C046000000008E
:1033700001B40248844601BC604700BF79020020C6
:1033800001B40248844601BC604700BF9D01002093
:1033900001B40248844601BC604700BFB503002069
:1033A00001B40248844601BC604700BF050100200B
:1033B00001B40248844601BC604700BFC100002040
:1033C0006519001091190010751B0010051E0010E2
:1033D000D11B0010D51C00109D1A0010AD19001053
:1033E000CD190010E1190010FD0C0010E9190010B2
:1033F0007D1000102D190010D5070010AD30001001
:08340000852100108902001073
:10340800A9020010AD0200100A2A2A2A2050414EB3
:103418004943202A2A2A0A000A00000048617264E7
:103428007761726520616C61726D20256420616C22
:10343800726561647920636C61696D656400000080
:103448004861726420617373657274004F757420EB
:103458006F66206D656D6F727900000052656C654E
:1034680061736500626F6F74325F7732357130381F
:1034780030000000322E322E300000007069636F79
:10348800000000007069636F2D6576656E742D68A5
:10349800617264776172652D696D706C000000005F
:1034A8004E6F7620323120323032350006005250CD
:1034B800D3F075426434001006005250E182887FD0
:1034C8006C34001006005250ABB360537C340010CB
:1034D80006005250BBFF3CB6843400100600525020
:1034E800861C03028C340010060052505422A29D00
:1034F800A834001005005250DE65F468BC3E001088
:103508000D0A00000000000000000000D12100109A
:10351800D5210010D9210010F5210010000000006D
:1035280000000000452300105923001069230010F3
:1035380091230010C12300102D230010000000006B
:1035480000000000D1210010D52100100125001035
:10355800D52500104D25001035250010000000006D
:103568000000000045230010592300101126001008
:103578002526001071260010FD260010000000000E
:1035880000000000452300105923001041260010B8
:0C35980055260010A5260010FD2600108E
:1035A400B4340010C0340010CC340010D8340010EF
:0C35B400E4340010F0340010FC3400106F
:1035C000D02330B500251B0600245D5705E0BFF36E
:1035D0005F8F1C6081F3108820BF0268EFF31081B9
:1035E00072B61368002BFCD0BFF35F8F02790368BB
:1035F0007F2AECD90571BFF35F8F00221A6081F337
:10360000108830BDF0B5C646150000B504001E0098
:103610000268EFF3108172B61368002BFCD0BFF381
:103620005F8F0423E3562268002B2BDBBFF35F8FF1
:103630000020106081F31088D02212061278002733
:1036400052B290469A420ED1002080BCB846F0BDDE
:10365000BFF35F8F176081F310882800310000F0FE
:103660002BF90028F0D12268EFF3108172B61368AD
:10367000002BFCD0BFF35F8F237922687F2BE7D923
:10368000434602E0D0231B061B682371BFF35F8F04
:103690000023136081F310880120D6E70268EFF35E
:1036A000108172B61368002BFCD0BFF35F8FFF232D
:1036B00003710368BFF35F8F00221A6081F31088E3
:1036C00040BF704710B5084C2378002B0AD18023E7
:1036D000064807495B051A68C25004338B42FAD189
:1036E0000123237010BDC04659120020D0100010D5
:1036F0000001001010B5014B984710BDD1100020FB
:10370000064B5A6802609A684260DA6882601A69F9
:10371000C2605A6902619B694361704700000240C0
:103720000268064B5A6042689A608268DA60C26832
:103730001A6102695A6142699A6170470000024049
:10374000034B1A68C0239B009343024A13607047DF
:103750000C8001400C900140054B1A6880239B00AF
:103760005340C02292001340024A13607047C04683
:103770000C8001400C9001400023F0B5DE46574616
:103780004E4645469A46E0B589B001900E00988AAB
:1037900045491B8B14009847534681464349988AF4
:1037A0001B8B9847534642490500988A1B8B9847C4
:1037B0008046FFF787FF02A8FFF7A2FFC847A84788
:1037C000FFF7CAFF251E22D00823C0219C460220F5
:1037D000490562468B6A1A4018423FD0631B002D90
:1037E0002FD1002A11D1002C11D0C0235B059B469C
:1037F00002239A46063399465B464A4657469B6AD9
:103800001A401F4242D0002AF6D0002C30D1FFF7D8
:1038100097FFC047FFF76EFF02A8FFF781FF09B0CF
:10382000F0BCBB46B246A946A046F0BD002C2FD145
:10383000C0225205926A914608224F463A40BF077D
:103840002DD50D2B1BD9002AF0D1C0225205926A2A
:10385000914608224F463A40BF07F2D4002A04D1CD
:103860002B002343002BB4D1D1E72B00002CF9D03F
:103870000B6E013C3370230001362B43F2E7019FAE
:10388000013D3B7801370B660197E7E70025E5E747
:10389000C0235B051B6E013C3370013699E72B009A
:1038A000002ADFD1DCE7C046494600004558000049
:1038B000464300007047C04601B40248844601BC3C
:1038C000604700BF851200101000000000000000DB
:1038D00000000100000000000000000000000200E5
:1038E00000000000000000000000030000000000D5
:1038F000000000000000FF000000000001B5486863
:1039000001318E460047704609380149884701BD9C
:10391000390C001000000000000000000000000052
:103920000000000000000000C009002000000000AE
:10393000503300004C330000543300005233000079
:103940004D5300004D430000533400004334000049
:10395000FFFFFFFF00000200000000000000000069
:103960005804002058040020600400206004002057
:103970006804002068040020700400207004002007
:1039800078040020780400208004002080040020B7
:103990008804002088040020900400209004002067
:1039A0009804002098040020A0040020A004002017
:1039B000A8040020A8040020B0040020B0040020C7
:1039C000B8040020B8040020C0040020C004002077
:1039D000C8040020C8040020D0040020D004002027
:1039E000D8040020D8040020E0040020E0040020D7
:1039F000E8040020E8040020F0040020F004002087
:103A0000F8040020F8040020000500200005002034
:103A100008050020080500201005002010050020E2
:103A20001805002018050020200500202005002092
:103A30002805002028050020300500203005002042
:103A400038050020380500204005002040050020F2
:103A500048050020480500205005002050050020A2
:103A60005805002058050020600500206005002052
:103A70006805002068050020700500207005002002
:103A800078050020780500208005002080050020B2
:103A90008805002088050020900500209005002062
:103AA0009805002098050020A0050020A005002012
:103AB000A8050020A8050020B0050020B0050020C2
:103AC000B8050020B8050020C0050020C005002072
:103AD000C8050020C8050020D0050020D005002022
:103AE000D8050020D8050020E0050020E0050020D2
:103AF000E8050020E8050020F0050020F005002082
:103B0000F8050020F805002000060020000600202F
:103B100008060020080600201006002010060020DD
:103B2000180600201806002020060020200600208D
:103B3000280600202806002030060020300600203D
:103B400038060020380600204006002040060020ED
:103B5000480600204806002050060020500600209D
:103B6000580600205806002060060020600600204D
:103B700068060020680600207006002070060020FD
:103B800078060020780600208006002080060020AD
:103B9000880600208806002090060020900600205D
:103BA0009806002098060020A0060020A00600200D
:103BB000A8060020A8060020B0060020B0060020BD
:103BC000B8060020B8060020C0060020C00600206D
:103BD000C8060020C8060020D0060020D00600201D
:103BE000D8060020D8060020E0060020E0060020CD
:103BF000E8060020E8060020F0060020F00600207D
:103C0000F8060020F806002000070020000700202A
:103C100008070020080700201007002010070020D8
:103C20001807002018070020200700202007002088
:103C30002807002028070020300700203007002038
:103C400038070020380700204007002040070020E8
:103C50004807002048070020500700205007002098
:103C60005807002058070020600700206007002048
:103C700068070020680700207007002070070020F8
:103C800078070020780700208007002080070020A8
:103C90008807002088070020900700209007002058
:103CA0009807002098070020A0070020A007002008
:103CB000A8070020A8070020B0070020B0070020B8
:103CC000B8070020B8070020C0070020C007002068
:103CD000C8070020C8070020D0070020D007002018
:103CE000D8070020D8070020E0070020E0070020C8
:103CF000E8070020E8070020F0070020F007002078
:103D0000F8070020F8070020000800200008002025
:103D100008080020080800201008002010080020D3
:103D20001808002018080020200800202008002083
:103D30002808002028080020300800203008002033
:103D400038080020380800204008002040080020E3
:103D50004808002048080020500800205008002093
:103D6000680800200000000000000000980F0020FC
:103D7000001000206810002000000000000000007B
:103D80000000000000000000000000000000000033
:103D90000000000000000000000000000000000023
:103DA0000000000000000000000000000000000013
:103DB0000000000000000000000000000000000003
:103DC00000000000000000000000000000000000F3
:103DD00000000000000000000000000000000000E3
:103DE00000000000000000000000000000000000D3
:103DF00000000000000000000000000000000000C3
:103E000001000000000000000E33CDAB34126DE65F
:103E1000ECDE05000B0000000000000000000000C8
:103E20000000000000000000000000000000000092
:103E30000000000000000000000000000000000082
:103E40000000000000000000000000000000000072
:103E50000000000000000000000000000000000062
:103E60000000000000000000000000000000000052
:103E70000000000000000000000000000000000042
:103E80000000000000000000000000000000000032
:103E90000000000000000000000000000000000022
:103EA00000000000000000005C0F00200000000087
:0C3EB00000000000000000000000000006
:04000005100001E9FD
:00000001FF
